{
  "contractName": "kda_ballot",
  "abi": [
    {
      "inputs": [],
      "payable": false,
      "stateMutability": "nonpayable",
      "type": "constructor"
    },
    {
      "constant": true,
      "inputs": [],
      "name": "isVoted",
      "outputs": [
        {
          "name": "result",
          "type": "bool"
        }
      ],
      "payable": false,
      "stateMutability": "view",
      "type": "function"
    },
    {
      "constant": false,
      "inputs": [
        {
          "name": "_hero_num",
          "type": "uint256"
        }
      ],
      "name": "vote",
      "outputs": [
        {
          "name": "result",
          "type": "bool"
        }
      ],
      "payable": false,
      "stateMutability": "nonpayable",
      "type": "function"
    },
    {
      "constant": true,
      "inputs": [],
      "name": "get_all_Hero",
      "outputs": [
        {
          "name": "num",
          "type": "uint256[]"
        },
        {
          "name": "name",
          "type": "string[]"
        },
        {
          "name": "count",
          "type": "uint256[]"
        }
      ],
      "payable": false,
      "stateMutability": "view",
      "type": "function"
    }
  ],
  "bytecode": "0x6080604052610bc0604051908101604052806040805190810160405280600381526020017fe69a97000000000000000000000000000000000000000000000000000000000081525081526020016040805190810160405280600381526020017fe7899b000000000000000000000000000000000000000000000000000000000081525081526020016040805190810160405280600381526020017fe6ae87000000000000000000000000000000000000000000000000000000000081525081526020016040805190810160405280600381526020017fe993b8000000000000000000000000000000000000000000000000000000000081525081526020016040805190810160405280600381526020017fe6b299000000000000000000000000000000000000000000000000000000000081525081526020016040805190810160405280600381526020017fe6989f000000000000000000000000000000000000000000000000000000000081525081526020016040805190810160405280600381526020017fe892b8000000000000000000000000000000000000000000000000000000000081525081526020016040805190810160405280600381526020017fe5a48d000000000000000000000000000000000000000000000000000000000081525081526020016040805190810160405280600381526020017fe5bc97000000000000000000000000000000000000000000000000000000000081525081526020016040805190810160405280600381526020017fe8999a000000000000000000000000000000000000000000000000000000000081525081526020016040805190810160405280600381526020017fe88bb1000000000000000000000000000000000000000000000000000000000081525081526020016040805190810160405280600381526020017fe8afba000000000000000000000000000000000000000000000000000000000081525081526020016040805190810160405280600381526020017fe88da3000000000000000000000000000000000000000000000000000000000081525081526020016040805190810160405280600381526020017fe7a596000000000000000000000000000000000000000000000000000000000081525081526020016040805190810160405280600381526020017fe697b6000000000000000000000000000000000000000000000000000000000081525081526020016040805190810160405280600381526020017fe68ea2000000000000000000000000000000000000000000000000000000000081525081526020016040805190810160405280600381526020017fe69cab000000000000000000000000000000000000000000000000000000000081525081526020016040805190810160405280600381526020017fe6bdae000000000000000000000000000000000000000000000000000000000081525081526020016040805190810160405280600381526020017fe6ada3000000000000000000000000000000000000000000000000000000000081525081526020016040805190810160405280600381526020017fe6b5b7000000000000000000000000000000000000000000000000000000000081525081526020016040805190810160405280600381526020017fe5beb7000000000000000000000000000000000000000000000000000000000081525081526020016040805190810160405280600381526020017fe8bfb7000000000000000000000000000000000000000000000000000000000081525081526020016040805190810160405280600381526020017fe98592000000000000000000000000000000000000000000000000000000000081525081526020016040805190810160405280600381526020017fe6b395000000000000000000000000000000000000000000000000000000000081525081526020016040805190810160405280600381526020017fe68898000000000000000000000000000000000000000000000000000000000081525081526020016040805190810160405280600381526020017fe5a4a7000000000000000000000000000000000000000000000000000000000081525081526020016040805190810160405280600381526020017fe7bfa0000000000000000000000000000000000000000000000000000000000081525081526020016040805190810160405280600381526020017fe5beb7000000000000000000000000000000000000000000000000000000000081525081526020016040805190810160405280600381526020017fe6ada6000000000000000000000000000000000000000000000000000000000081525081526020016040805190810160405280600381526020017fe69caa000000000000000000000000000000000000000000000000000000000081525081526020016040805190810160405280600381526020017fe6888f000000000000000000000000000000000000000000000000000000000081525081526020016040805190810160405280600381526020017fe6adbb000000000000000000000000000000000000000000000000000000000081525081526020016040805190810160405280600381526020017fe8999a000000000000000000000000000000000000000000000000000000000081525081526020016040805190810160405280600381526020017fe5bdb1000000000000000000000000000000000000000000000000000000000081525081526020016040805190810160405280600381526020017fe78b82000000000000000000000000000000000000000000000000000000000081525081526020016040805190810160405280600381526020017fe8999a000000000000000000000000000000000000000000000000000000000081525081526020016040805190810160405280600381526020017fe6b0b8000000000000000000000000000000000000000000000000000000000081525081526020016040805190810160405280600381526020017fe69ab4000000000000000000000000000000000000000000000000000000000081525081526020016040805190810160405280600381526020017fe6b7b1000000000000000000000000000000000000000000000000000000000081525081526020016040805190810160405280600381526020017fe79bb2000000000000000000000000000000000000000000000000000000000081525081526020016040805190810160405280600381526020017fe59ca3000000000000000000000000000000000000000000000000000000000081525081526020016040805190810160405280600381526020017fe78694000000000000000000000000000000000000000000000000000000000081525081526020016040805190810160405280600381526020017fe8999a000000000000000000000000000000000000000000000000000000000081525081526020016040805190810160405280600381526020017fe689ad000000000000000000000000000000000000000000000000000000000081525081526020016040805190810160405280600381526020017fe697a0000000000000000000000000000000000000000000000000000000000081525081526020016040805190810160405280600381526020017fe9bd90000000000000000000000000000000000000000000000000000000000081525081526020016040805190810160405280600381526020017fe99381000000000000000000000000000000000000000000000000000000000081525081526020016040805190810160405280600381526020017fe6b299000000000000000000000000000000000000000000000000000000000081525081526020016040805190810160405280600381526020017fe6b7b1000000000000000000000000000000000000000000000000000000000081525081526020016040805190810160405280600381526020017fe6b0b8000000000000000000000000000000000000000000000000000000000081525081526020016040805190810160405280600381526020017fe99baa000000000000000000000000000000000000000000000000000000000081525081526020016040805190810160405280600381526020017fe78b82000000000000000000000000000000000000000000000000000000000081525081526020016040805190810160405280600381526020017fe5b1b1000000000000000000000000000000000000000000000000000000000081525081526020016040805190810160405280600381526020017fe68898000000000000000000000000000000000000000000000000000000000081525081526020016040805190810160405280600381526020017fe8a180000000000000000000000000000000000000000000000000000000000081525081526020016040805190810160405280600381526020017fe5b9bb000000000000000000000000000000000000000000000000000000000081525081526020016040805190810160405280600381526020017fe68aab000000000000000000000000000000000000000000000000000000000081525081526020016040805190810160405280600381526020017fe8999a000000000000000000000000000000000000000000000000000000000081525081526020016040805190810160405280600381526020017fe88d92000000000000000000000000000000000000000000000000000000000081525081526020016040805190810160405280600381526020017fe582b2000000000000000000000000000000000000000000000000000000000081525081526020016040805190810160405280600381526020017fe69cba000000000000000000000000000000000000000000000000000000000081525081526020016040805190810160405280600381526020017fe7aca6000000000000000000000000000000000000000000000000000000000081525081526020016040805190810160405280600381526020017fe681b6000000000000000000000000000000000000000000000000000000000081525081526020016040805190810160405280600381526020017fe69aae000000000000000000000000000000000000000000000000000000000081525081526020016040805190810160405280600381526020017fe782bc000000000000000000000000000000000000000000000000000000000081525081526020016040805190810160405280600381526020017fe4baa1000000000000000000000000000000000000000000000000000000000081525081526020016040805190810160405280600381526020017fe6b0b4000000000000000000000000000000000000000000000000000000000081525081526020016040805190810160405280600381526020017fe8afba000000000000000000000000000000000000000000000000000000000081525081526020016040805190810160405280600381526020017fe6b2b3000000000000000000000000000000000000000000000000000000000081525081526020016040805190810160405280600381526020017fe58880000000000000000000000000000000000000000000000000000000000081525081526020016040805190810160405280600381526020017fe793a6000000000000000000000000000000000000000000000000000000000081525081526020016040805190810160405280600381526020017fe8bf85000000000000000000000000000000000000000000000000000000000081525081526020016040805190810160405280600381526020017fe9ad82000000000000000000000000000000000000000000000000000000000081525081526020016040805190810160405280600381526020017fe5b7a8000000000000000000000000000000000000000000000000000000000081525081526020016040805190810160405280600381526020017fe89bae000000000000000000000000000000000000000000000000000000000081525081526020016040805190810160405280600381526020017fe58da1000000000000000000000000000000000000000000000000000000000081525081526020016040805190810160405280600381526020017fe7989f000000000000000000000000000000000000000000000000000000000081525081526020016040805190810160405280600381526020017fe585bd000000000000000000000000000000000000000000000000000000000081525081526020016040805190810160405280600381526020017fe697a0000000000000000000000000000000000000000000000000000000000081525081526020016040805190810160405280600381526020017fe683a9000000000000000000000000000000000000000000000000000000000081525081526020016040805190810160405280600381526020017fe982aa000000000000000000000000000000000000000000000000000000000081525081526020016040805190810160405280600381526020017fe8999a000000000000000000000000000000000000000000000000000000000081525081526020016040805190810160405280600381526020017fe69cba000000000000000000000000000000000000000000000000000000000081525081526020016040805190810160405280600381526020017fe78ca9000000000000000000000000000000000000000000000000000000000081525081526020016040805190810160405280600381526020017fe99bb7000000000000000000000000000000000000000000000000000000000081525081526020016040805190810160405280600381526020017fe7a596000000000000000000000000000000000000000000000000000000000081525081526020016040805190810160405280600381526020017fe8bf9c000000000000000000000000000000000000000000000000000000000081525081526020016040805190810160405280600381526020017fe5beb7000000000000000000000000000000000000000000000000000000000081525081526020016040805190810160405280600381526020017fe796be000000000000000000000000000000000000000000000000000000000081525081526020016040805190810160405280600381526020017fe789a7000000000000000000000000000000000000000000000000000000000081525081526020016040805190810160405280600381526020017fe7949f000000000000000000000000000000000000000000000000000000000081525081526020016040805190810160405280600381526020017fe5bdb1000000000000000000000000000000000000000000000000000000000081525081526020016040805190810160405280600381526020017fe78886000000000000000000000000000000000000000000000000000000000081525081526020016040805190810160405280600381526020017fe697b60000000000000000000000000000000000000000000000000000000000815250815250600190605e620015cb92919062001786565b50348015620015d957600080fd5b5060008090505b600180549050811015620017325760006060604051908101604052808381526020016001848154811015156200161257fe5b906000526020600020018054600181600116156101000203166002900480601f016020809104026020016040519081016040528092919081815260200182805460018160011615610100020316600290048015620016b45780601f106200168857610100808354040283529160200191620016b4565b820191906000526020600020905b8154815290600101906020018083116200169657829003601f168201915b5050505050815260200160008152509080600181540180825580915050906001820390600052602060002090600302016000909192909190915060008201518160000155602082015181600101908051906020019062001716929190620017ed565b50604082015181600201555050508080600101915050620015e0565b33600360006101000a81548173ffffffffffffffffffffffffffffffffffffffff021916908373ffffffffffffffffffffffffffffffffffffffff1602179055506001805490506004819055505062001919565b828054828255906000526020600020908101928215620017da579160200282015b82811115620017d9578251829080519060200190620017c8929190620017ed565b5091602001919060010190620017a7565b5b509050620017e9919062001874565b5090565b828054600181600116156101000203166002900490600052602060002090601f016020900481019282601f106200183057805160ff191683800117855562001861565b8280016001018555821562001861579182015b828111156200186057825182559160200191906001019062001843565b5b509050620018709190620018a5565b5090565b620018a291905b808211156200189e5760008181620018949190620018cd565b506001016200187b565b5090565b90565b620018ca91905b80821115620018c6576000816000905550600101620018ac565b5090565b90565b50805460018160011615610100020316600290046000825580601f10620018f5575062001916565b601f016020900490600052602060002090810190620019159190620018a5565b5b50565b61083d80620019296000396000f300608060405260043610610057576000357c0100000000000000000000000000000000000000000000000000000000900463ffffffff1680630121b93f1461005c57806362166b18146100995780637b5bc2e4146100c6575b600080fd5b34801561006857600080fd5b50610083600480360361007e91908101906104c9565b6100f1565b60405161009091906106ef565b60405180910390f35b3480156100a557600080fd5b506100ae610231565b6040516100bd939291906106a3565b60405180910390f35b3480156100d257600080fd5b506100db610459565b6040516100e891906106ef565b60405180910390f35b6000806000805490508310151561013d576040517f08c379a00000000000000000000000000000000000000000000000000000000081526004016101349061070a565b60405180910390fd5b600260003373ffffffffffffffffffffffffffffffffffffffff1673ffffffffffffffffffffffffffffffffffffffff16815260200190815260200160002090508060000160009054906101000a900460ff161515156101d2576040517f08c379a00000000000000000000000000000000000000000000000000000000081526004016101c99061072a565b60405180910390fd5b60018160000160006101000a81548160ff021916908315150217905550828160010181905550600160008481548110151561020957fe5b9060005260206000209060030201600201600082825401925050819055506001915050919050565b606080606080606080600060045460405190808252806020026020018201604052801561026d5781602001602082028038833980820191505090505b5093506004546040519080825280602002602001820160405280156102a657816020015b60608152602001906001900390816102915790505b5092506004546040519080825280602002602001820160405280156102da5781602001602082028038833980820191505090505b509150600090505b600454811015610447576000818154811015156102fb57fe5b906000526020600020906003020160000154848281518110151561031b57fe5b906020019060200201818152505060008181548110151561033857fe5b90600052602060002090600302016001018054600181600116156101000203166002900480601f0160208091040260200160405190810160405280929190818152602001828054600181600116156101000203166002900480156103dd5780601f106103b2576101008083540402835291602001916103dd565b820191906000526020600020905b8154815290600101906020018083116103c057829003601f168201915b505050505083828151811015156103f057fe5b9060200190602002018190525060008181548110151561040c57fe5b906000526020600020906003020160020154828281518110151561042c57fe5b906020019060200201818152505080806001019150506102e2565b83838396509650965050505050909192565b600080600260003373ffffffffffffffffffffffffffffffffffffffff1673ffffffffffffffffffffffffffffffffffffffff16815260200190815260200160002090508060000160009054906101000a900460ff1691505090565b60006104c182356107b5565b905092915050565b6000602082840312156104db57600080fd5b60006104e9848285016104b5565b91505092915050565b60006104fd82610764565b808452602084019350836020820285016105168561074a565b60005b8481101561054f5783830388526105318383516105ca565b925061053c82610785565b9150602088019750600181019050610519565b508196508694505050505092915050565b600061056b8261076f565b80845260208401935061057d83610757565b60005b828110156105af57610593868351610694565b61059c82610792565b9150602086019550600181019050610580565b50849250505092915050565b6105c48161079f565b82525050565b60006105d58261077a565b8084526105e98160208601602086016107bf565b6105f2816107f2565b602085010191505092915050565b6000602682527f496e707574204572726f7221206865726f5f6e756d206973206f7574206f662060208301527f696e6465782100000000000000000000000000000000000000000000000000006040830152606082019050919050565b6000601e82527f4572726f722120596f75206861766520616c726561647920766f7465642100006020830152604082019050919050565b61069d816107ab565b82525050565b600060608201905081810360008301526106bd8186610560565b905081810360208301526106d181856104f2565b905081810360408301526106e58184610560565b9050949350505050565b600060208201905061070460008301846105bb565b92915050565b6000602082019050818103600083015261072381610600565b9050919050565b600060208201905081810360008301526107438161065d565b9050919050565b6000602082019050919050565b6000602082019050919050565b600081519050919050565b600081519050919050565b600081519050919050565b6000602082019050919050565b6000602082019050919050565b60008115159050919050565b6000819050919050565b6000819050919050565b60005b838110156107dd5780820151818401526020810190506107c2565b838111156107ec576000848401525b50505050565b6000601f19601f83011690509190505600a265627a7a72305820983fbae45b03921dfb1359d94402f142256f8178ed8acc46d77788ffceeb6ad66c6578706572696d656e74616cf50037",
  "source": "pragma solidity ^0.4.22;\r\npragma experimental ABIEncoderV2;\r\ncontract kda_ballot {\r\n    \r\n    /// 投票者的数据结构 \r\n    struct Voter {\r\n        bool isVoted;                // 是否已经投过票\r\n        uint vote_hero_num;          // 投票对应的英雄编号\r\n    }\r\n\r\n    /// 参与投票的LOL英雄数据结构\r\n    struct Hero {\r\n        uint hero_num;          // 英雄的编号\r\n        string heroName;        // 英雄名字\r\n        uint voteCount;         // 英雄的得票数\r\n    }\r\n\r\n    /// 英雄列表\r\n    Hero[] heroes;\r\n\r\n    /// 初始参与投票的英雄名\r\n    string [] names = [\"暗\", \"牛\", \"殇\", \"铸\", \"沙\", \"星\", \"蒸\", \"复\", \"弗\", \"虚\", \"英\", \"诺\", \"荣\", \"祖\", \"时\", \"探\", \"末\", \"潮\", \"正\", \"海\", \"德\", \"迷\", \"酒\", \"法\", \"战\", \"大\", \"翠\", \"德\", \"武\", \"未\", \"戏\", \"死\", \"虚\", \"影\", \"狂\", \"虚\", \"永\", \"暴\", \"深\", \"盲\", \"圣\", \"熔\", \"虚\", \"扭\", \"无\", \"齐\", \"铁\", \"沙\", \"深\", \"永\", \"雪\", \"狂\", \"山\", \"战\", \"血\", \"幻\", \"披\", \"虚\", \"荒\", \"傲\", \"机\", \"符\", \"恶\", \"暮\", \"炼\", \"亡\", \"水\", \"诺\", \"河\", \"刀\", \"瓦\", \"迅\", \"魂\", \"巨\", \"蛮\", \"卡\", \"瘟\", \"兽\", \"无\", \"惩\", \"邪\", \"虚\", \"机\", \"猩\", \"雷\", \"祖\", \"远\", \"德\", \"疾\", \"牧\", \"生\", \"影\", \"爆\", \"时\"];\r\n\r\n    /// 投票者地址和状态的对应关系\r\n    mapping(address=>Voter) voters;\r\n\r\n    address chairperson;\r\n\r\n    uint heroCount;\r\n\r\n\r\n    /// 判断用户是否已经投票\r\n    function isVoted() view public returns (bool result) {\r\n        Voter storage sender = voters[msg.sender];\r\n        return sender.isVoted;\r\n    }\r\n    \r\n    /// 在初始化合约时，初始化投票英雄的列表\r\n    constructor() public {\r\n        for(uint i = 0; i < names.length; i++) {\r\n            heroes.push(Hero({\r\n                hero_num : i,\r\n                heroName : names[i],\r\n                voteCount : 0\r\n            }));\r\n        }\r\n        chairperson = msg.sender;\r\n        heroCount = names.length;\r\n    }\r\n\r\n    /// 投票函数，每个用户只能投一次票给一个英雄\r\n    function vote(uint _hero_num) public returns (bool result) {\r\n        require(\r\n            _hero_num < heroes.length,\r\n            \"Input Error! hero_num is out of index!\"\r\n        );\r\n        Voter storage sender = voters[msg.sender];\r\n        require(\r\n            (!sender.isVoted),\r\n            \"Error! You have already voted!\"\r\n        );\r\n        sender.isVoted = true;\r\n        sender.vote_hero_num = _hero_num;\r\n\r\n        heroes[_hero_num].voteCount += 1;\r\n\r\n        return true;\r\n    }\r\n\r\n\r\n\r\n    /*/// 添加参与投票的英雄\r\n    function add_Hero(string name) public returns (bool result) {\r\n    \trequire(\r\n    \t\tmsg.sender == chairperson,\r\n    \t\t\"You have no right to add voting Hero!\"\r\n    \t);\r\n    \tfor(uint i = 0; i < heroCount; i++) {\r\n    \t\trequire(\r\n    \t\t\tkeccak256(name) != keccak256(heroes[i].heroName),\r\n    \t\t\t\"The hero is already in the voting List!\"\r\n    \t\t);\r\n    \t}\r\n    \theroes.push(Hero({\r\n    \t\thero_num : heroCount,\r\n    \t\theroName : name,\r\n    \t\tvoteCount : 0\r\n    \t}));\r\n    \theroCount += 1;\r\n    \treturn true;\r\n    }*/\r\n\r\n\r\n    /*/// 根据英雄编号获取英雄的得票数\r\n    function get_hero_voteCount(uint _hero_num) view public returns (uint count) {\r\n        require(\r\n            _hero_num < heroes.length,\r\n            \"Input Error! hero_num is out of index!\"\r\n        );\r\n        return heroes[_hero_num].voteCount;\r\n    }*/\r\n\r\n    /*/// 根据英雄编号获得英雄名\r\n    function get_hero_Name(uint _hero_num) view public returns (string name) {\r\n        require(\r\n            _hero_num < heroes.length,\r\n            \"Input Error! hero_num is out of index!\"\r\n        );\r\n        return heroes[_hero_num].heroName;\r\n    }*/\r\n\r\n\r\n    /*/// 获得当前投票数最高的英雄编号,名字和得票数\r\n    function winning_heroDetail() view public returns (uint num, string name, uint count) {\r\n        uint winning_heronum = 0;\r\n        if(heroes.length != 1) {\r\n        \tfor(uint i = 0; i < heroes.length-1; i++) {\r\n            \tif(heroes[i+1].voteCount > heroes[winning_heronum].voteCount) {\r\n                \twinning_heronum = i+1;\r\n            \t}\r\n        \t}\r\n        }\r\n        \r\n        return (heroes[winning_heronum].hero_num, heroes[winning_heronum].heroName, heroes[winning_heronum].voteCount);\r\n    }*/\r\n\r\n\r\n    /// 获取投票英雄列表信息\r\n   \tfunction get_all_Hero() view public returns (uint[] num, string[] name, uint[] count) {\r\n   \t\tuint[] memory num_temp = new uint[] (heroCount);\r\n   \t\tstring[] memory name_temp = new string[] (heroCount);\r\n   \t\tuint[] memory count_temp = new uint[] (heroCount);\r\n\r\n    \tfor(uint i = 0; i < heroCount; i++) {\r\n    \t\tnum_temp[i] = heroes[i].hero_num;\r\n    \t\tname_temp[i] = heroes[i].heroName;\r\n    \t\tcount_temp[i] = heroes[i].voteCount;\r\n    \t}\r\n    \treturn(num_temp, name_temp, count_temp);\r\n    }\r\n    \r\n    \r\n    /*/// 获得目前得票领先的四名KDA男团成员的英雄编号、英雄名、得票数\r\n    function get_four_leading_heroes() view public returns (uint[] num, string[] name, uint[] count) {\r\n   \t\tuint[] memory num_temp = new uint[] (4);\r\n   \t\tstring[] memory name_temp = new string[] (4);\r\n   \t\tuint[] memory count_temp = new uint[] (4);\r\n   \t\tHero[] memory copy_hero_list = new Hero[] (heroCount);\r\n   \t\tfor(uint c = 0; c < heroCount; c++) {\r\n   \t\t\tcopy_hero_list[c] = heroes[c];\r\n   \t\t}\r\n   \t\t\r\n   \t\tHero memory temp;\r\n   \t\tfor(uint i = 0; i < heroCount; i++) {\r\n   \t\t\tfor(uint j = 0; j < heroCount - i - 1; j++) {\r\n   \t\t\t\tif(copy_hero_list[j+1].voteCount > copy_hero_list[j].voteCount) {\r\n   \t\t\t\t\ttemp = copy_hero_list[j+1];\r\n   \t\t\t\t\tcopy_hero_list[j+1] = copy_hero_list[j];\r\n   \t\t\t\t\tcopy_hero_list[j] = temp;\r\n   \t\t\t\t}\r\n   \t\t\t}\r\n   \t\t}\r\n\r\n   \t\tfor(uint k = 0; k < 4; k++) {\r\n   \t\t\tnum_temp[k] = copy_hero_list[k].hero_num;\r\n   \t\t\tname_temp[k] = copy_hero_list[k].heroName;\r\n   \t\t\tcount_temp[k] = copy_hero_list[k].voteCount;\r\n   \t\t}\r\n    \treturn(num_temp, name_temp, count_temp);\r\n    }*/\r\n    \r\n\r\n\r\n    /// 辅助函数: uint to string\r\n    function uint2hexstr(uint i) internal pure returns (string) {\r\n        if (i == 0) return \"0\";\r\n        uint j = i;\r\n        uint length;\r\n        while (j != 0) {\r\n            length++;\r\n            j = j >> 4;\r\n        }\r\n        uint mask = 15;\r\n        bytes memory bstr = new bytes(length);\r\n        uint k = length - 1;\r\n        uint numStart = 48;\r\n        uint letterStarn = 65;\r\n        while (i != 0){\r\n            uint curr = (i & mask);\r\n            bstr[k--] = curr > 9 ? byte(55 + curr ) : byte(48 + curr); // 55 = 65 - 10\r\n            i = i >> 4;\r\n        }\r\n        return string(bstr);\r\n    }\r\n\r\n}",
  "sourcePath": "/home/chenbb6/code/blockChain/pet-shop-tutorial/contracts/kda_vote.sol",
  "compiler": {
    "name": "solc",
    "version": "0.4.24+commit.e67f0147.Emscripten.clang"
  },
  "schemaVersion": "2.0.1",
  "updatedAt": "2018-12-30T08:16:50.756Z"
}